{"abi":[{"type":"function","name":"ETH_FLAG","inputs":[],"outputs":[{"name":"","type":"address","internalType":"address"}],"stateMutability":"view"},{"type":"function","name":"buy","inputs":[{"name":"orderId","type":"bytes32","internalType":"bytes32"},{"name":"signatureForWL","type":"bytes","internalType":"bytes"}],"outputs":[],"stateMutability":"payable"},{"type":"function","name":"buy","inputs":[{"name":"orderId","type":"bytes32","internalType":"bytes32"}],"outputs":[],"stateMutability":"payable"},{"type":"function","name":"cancel","inputs":[{"name":"orderId","type":"bytes32","internalType":"bytes32"}],"outputs":[],"stateMutability":"nonpayable"},{"type":"function","name":"eip712Domain","inputs":[],"outputs":[{"name":"fields","type":"bytes1","internalType":"bytes1"},{"name":"name","type":"string","internalType":"string"},{"name":"version","type":"string","internalType":"string"},{"name":"chainId","type":"uint256","internalType":"uint256"},{"name":"verifyingContract","type":"address","internalType":"address"},{"name":"salt","type":"bytes32","internalType":"bytes32"},{"name":"extensions","type":"uint256[]","internalType":"uint256[]"}],"stateMutability":"view"},{"type":"function","name":"feeBP","inputs":[],"outputs":[{"name":"","type":"uint256","internalType":"uint256"}],"stateMutability":"view"},{"type":"function","name":"feeTo","inputs":[],"outputs":[{"name":"","type":"address","internalType":"address"}],"stateMutability":"view"},{"type":"function","name":"list","inputs":[{"name":"nft","type":"address","internalType":"address"},{"name":"tokenId","type":"uint256","internalType":"uint256"},{"name":"payToken","type":"address","internalType":"address"},{"name":"price","type":"uint256","internalType":"uint256"},{"name":"deadline","type":"uint256","internalType":"uint256"}],"outputs":[],"stateMutability":"nonpayable"},{"type":"function","name":"listing","inputs":[{"name":"nft","type":"address","internalType":"address"},{"name":"tokenId","type":"uint256","internalType":"uint256"}],"outputs":[{"name":"","type":"bytes32","internalType":"bytes32"}],"stateMutability":"view"},{"type":"function","name":"listingOrders","inputs":[{"name":"","type":"bytes32","internalType":"bytes32"}],"outputs":[{"name":"seller","type":"address","internalType":"address"},{"name":"nft","type":"address","internalType":"address"},{"name":"tokenId","type":"uint256","internalType":"uint256"},{"name":"payToken","type":"address","internalType":"address"},{"name":"price","type":"uint256","internalType":"uint256"},{"name":"deadline","type":"uint256","internalType":"uint256"}],"stateMutability":"view"},{"type":"function","name":"owner","inputs":[],"outputs":[{"name":"","type":"address","internalType":"address"}],"stateMutability":"view"},{"type":"function","name":"renounceOwnership","inputs":[],"outputs":[],"stateMutability":"nonpayable"},{"type":"function","name":"setFeeTo","inputs":[{"name":"to","type":"address","internalType":"address"}],"outputs":[],"stateMutability":"nonpayable"},{"type":"function","name":"setWhiteListSigner","inputs":[{"name":"signer","type":"address","internalType":"address"}],"outputs":[],"stateMutability":"nonpayable"},{"type":"function","name":"transferOwnership","inputs":[{"name":"newOwner","type":"address","internalType":"address"}],"outputs":[],"stateMutability":"nonpayable"},{"type":"function","name":"whiteListSigner","inputs":[],"outputs":[{"name":"","type":"address","internalType":"address"}],"stateMutability":"view"},{"type":"event","name":"Cancel","inputs":[{"name":"orderId","type":"bytes32","indexed":false,"internalType":"bytes32"}],"anonymous":false},{"type":"event","name":"EIP712DomainChanged","inputs":[],"anonymous":false},{"type":"event","name":"List","inputs":[{"name":"nft","type":"address","indexed":true,"internalType":"address"},{"name":"tokenId","type":"uint256","indexed":true,"internalType":"uint256"},{"name":"orderId","type":"bytes32","indexed":false,"internalType":"bytes32"},{"name":"seller","type":"address","indexed":false,"internalType":"address"},{"name":"payToken","type":"address","indexed":false,"internalType":"address"},{"name":"price","type":"uint256","indexed":false,"internalType":"uint256"},{"name":"deadline","type":"uint256","indexed":false,"internalType":"uint256"}],"anonymous":false},{"type":"event","name":"OwnershipTransferred","inputs":[{"name":"previousOwner","type":"address","indexed":true,"internalType":"address"},{"name":"newOwner","type":"address","indexed":true,"internalType":"address"}],"anonymous":false},{"type":"event","name":"SetFeeTo","inputs":[{"name":"to","type":"address","indexed":false,"internalType":"address"}],"anonymous":false},{"type":"event","name":"SetWhiteListSigner","inputs":[{"name":"signer","type":"address","indexed":false,"internalType":"address"}],"anonymous":false},{"type":"event","name":"Sold","inputs":[{"name":"orderId","type":"bytes32","indexed":false,"internalType":"bytes32"},{"name":"buyer","type":"address","indexed":false,"internalType":"address"},{"name":"fee","type":"uint256","indexed":false,"internalType":"uint256"}],"anonymous":false},{"type":"error","name":"ECDSAInvalidSignature","inputs":[]},{"type":"error","name":"ECDSAInvalidSignatureLength","inputs":[{"name":"length","type":"uint256","internalType":"uint256"}]},{"type":"error","name":"ECDSAInvalidSignatureS","inputs":[{"name":"s","type":"bytes32","internalType":"bytes32"}]},{"type":"error","name":"InvalidShortString","inputs":[]},{"type":"error","name":"OwnableInvalidOwner","inputs":[{"name":"owner","type":"address","internalType":"address"}]},{"type":"error","name":"OwnableUnauthorizedAccount","inputs":[{"name":"account","type":"address","internalType":"address"}]},{"type":"error","name":"SafeERC20FailedOperation","inputs":[{"name":"token","type":"address","internalType":"address"}]},{"type":"error","name":"StringTooLong","inputs":[{"name":"str","type":"string","internalType":"string"}]}],"bytecode":{"object":"0x610160604052348015610010575f80fd5b50604080518082018252601281527113dc195b94dc1858d953919513585c9ad95d60721b602080830191909152825180840190935260018352603160f81b9083015290338061007957604051631e4fbdf760e01b81525f60048201526024015b60405180910390fd5b61008281610137565b5061008e826001610186565b6101205261009d816002610186565b61014052815160208084019190912060e052815190820120610100524660a05261012960e05161010051604080517f8b73c3c69bb8fe3d512ecc4cf759cc79239f7b179b0ffacaa9a75d522b39400f60208201529081019290925260608201524660808201523060a08201525f9060c00160405160208183030381529060405280519060200120905090565b60805250503060c0526103a4565b5f80546001600160a01b038381166001600160a01b0319831681178455604051919092169283917f8be0079c531659141344cd1fd0a4f28419497f9722a3daafe3b4186f6b6457e09190a35050565b5f6020835110156101a15761019a836101b8565b90506101b2565b816101ac848261028d565b5060ff90505b92915050565b5f80829050601f815111156101e2578260405163305a27a960e01b8152600401610070919061034c565b80516101ed82610381565b179392505050565b634e487b7160e01b5f52604160045260245ffd5b600181811c9082168061021d57607f821691505b60208210810361023b57634e487b7160e01b5f52602260045260245ffd5b50919050565b601f82111561028857805f5260205f20601f840160051c810160208510156102665750805b601f840160051c820191505b81811015610285575f8155600101610272565b50505b505050565b81516001600160401b038111156102a6576102a66101f5565b6102ba816102b48454610209565b84610241565b602080601f8311600181146102ed575f84156102d65750858301515b5f19600386901b1c1916600185901b178555610344565b5f85815260208120601f198616915b8281101561031b578886015182559484019460019091019084016102fc565b508582101561033857878501515f19600388901b60f8161c191681555b505060018460011b0185555b505050505050565b602081525f82518060208401528060208501604085015e5f604082850101526040601f19601f83011684010191505092915050565b8051602080830151919081101561023b575f1960209190910360031b1b16919050565b60805160a05160c05160e051610100516101205161014051611a4d6103f55f395f610cf601525f610cc401525f61141401525f6113ec01525f61134701525f61137101525f61139b0152611a4d5ff3fe6080604052600436106100ef575f3560e01c80639b6ec0db11610087578063f2fde38b11610057578063f2fde38b146102f0578063f3db41fb1461030f578063f46901ed1461032e578063f56153921461034d575f80fd5b80639b6ec0db1461020f5780639c9a106114610222578063c4d252f514610235578063e5cb0f5214610254575f80fd5b806384b0196e116100c257806384b0196e1461018e57806384bdb6e0146101b55780638da5cb5b146101d45780638de820f6146101f0575f80fd5b8063017e7e58146100f3578063017f6fae1461012f57806345fe280d14610151578063715018a614610178575b5f80fd5b3480156100fe575f80fd5b50600454610112906001600160a01b031681565b6040516001600160a01b0390911681526020015b60405180910390f35b34801561013a575f80fd5b50610143601e81565b604051908152602001610126565b34801561015c575f80fd5b5061011273eeeeeeeeeeeeeeeeeeeeeeeeeeeeeeeeeeeeeeee81565b348015610183575f80fd5b5061018c61036c565b005b348015610199575f80fd5b506101a261037f565b604051610126979695949392919061174c565b3480156101c0575f80fd5b5061018c6101cf3660046117f7565b6103c1565b3480156101df575f80fd5b505f546001600160a01b0316610112565b3480156101fb575f80fd5b5061014361020a366004611819565b6104bb565b61018c61021d366004611843565b610506565b61018c6102303660046118b8565b61051f565b348015610240575f80fd5b5061018c61024f3660046118b8565b610539565b34801561025f575f80fd5b506102b261026e3660046118b8565b600560208190525f91825260409091208054600182015460028301546003840154600485015494909501546001600160a01b03938416959284169491939092169186565b604080516001600160a01b039788168152958716602087015285019390935293166060830152608082019290925260a081019190915260c001610126565b3480156102fb575f80fd5b5061018c61030a3660046117f7565b61066a565b34801561031a575f80fd5b5061018c6103293660046118cf565b6106a4565b348015610339575f80fd5b5061018c6103483660046117f7565b610b9e565b348015610358575f80fd5b50600354610112906001600160a01b031681565b610374610c42565b61037d5f610c6e565b565b5f6060805f805f6060610390610cbd565b610398610cef565b604080515f80825260208201909252600f60f81b9b939a50919850469750309650945092509050565b6103c9610c42565b6001600160a01b0381166104185760405162461bcd60e51b81526020600482015260116024820152704d4b543a207a65726f206164647265737360781b60448201526064015b60405180910390fd5b6003546001600160a01b038083169116036104665760405162461bcd60e51b815260206004820152600e60248201526d1352d50e9c995c19585d081cd95d60921b604482015260640161040f565b600380546001600160a01b0319166001600160a01b0383169081179091556040519081527f0605f8da057ada46f0d7c9dbcaa45f879c237bb6e190502d1ce90a31d0c365d0906020015b60405180910390a150565b6001600160a01b038083165f90815260066020908152604080832085845282528083205480845260059092528220549192909116156104fa57806104fc565b5f5b9150505b92915050565b6105108282610d1c565b61051a835f610e1a565b505050565b6004546105369082906001600160a01b0316610e1a565b50565b5f818152600560205260409020546001600160a01b0316806105955760405162461bcd60e51b81526020600482015260156024820152741352d50e881bdc99195c881b9bdd081b1a5cdd1959605a1b604482015260640161040f565b6001600160a01b03811633146105ed5760405162461bcd60e51b815260206004820152601b60248201527f4d4b543a206f6e6c792073656c6c65722063616e2063616e63656c0000000000604482015260640161040f565b5f82815260056020818152604080842080546001600160a01b03199081168255600182018054821690556002820186905560038201805490911690556004810185905590920192909255518381527fe8d9861dbc9c663ed3accd261bbe2fe01e0d3d9e5f51fa38523b265c7757a93a910160405180910390a15050565b610672610c42565b6001600160a01b03811661069b57604051631e4fbdf760e01b81525f600482015260240161040f565b61053681610c6e565b4281116106f35760405162461bcd60e51b815260206004820152601c60248201527f4d4b543a20646561646c696e6520697320696e20746865207061737400000000604482015260640161040f565b5f82116107375760405162461bcd60e51b81526020600482015260126024820152714d4b543a207072696365206973207a65726f60701b604482015260640161040f565b6001600160a01b03831615806107ab57505f836001600160a01b03166318160ddd6040518163ffffffff1660e01b8152600401602060405180830381865afa158015610785573d5f803e3d5ffd5b505050506040513d601f19601f820116820180604052508101906107a9919061191d565b115b6107f75760405162461bcd60e51b815260206004820152601a60248201527f4d4b543a20706179546f6b656e206973206e6f742076616c6964000000000000604482015260640161040f565b6040516331a9108f60e11b81526004810185905233906001600160a01b03871690636352211e90602401602060405180830381865afa15801561083c573d5f803e3d5ffd5b505050506040513d601f19601f820116820180604052508101906108609190611934565b6001600160a01b0316146108a75760405162461bcd60e51b815260206004820152600e60248201526d26a5aa1d103737ba1037bbb732b960911b604482015260640161040f565b60405163020604bf60e21b81526004810185905230906001600160a01b0387169063081812fc90602401602060405180830381865afa1580156108ec573d5f803e3d5ffd5b505050506040513d601f19601f820116820180604052508101906109109190611934565b6001600160a01b0316148061098c575060405163e985e9c560e01b81523360048201523060248201526001600160a01b0386169063e985e9c590604401602060405180830381865afa158015610968573d5f803e3d5ffd5b505050506040513d601f19601f8201168201806040525081019061098c919061194f565b6109cc5760405162461bcd60e51b81526020600482015260116024820152701352d50e881b9bdd08185c1c1c9bdd9959607a1b604482015260640161040f565b6040805160c08082018352338083526001600160a01b0389811660208086019182528587018b81528a841660608089019182526080808a018d815260a0808c018e81528d518089019b909b52975189168a8e0152945192890192909252915186169187019190915251908501529051838501528551808403909401845260e090920185528251928201929092205f8181526005909252939020549192911615610ab75760405162461bcd60e51b815260206004820152601960248201527f4d4b543a206f7264657220616c7265616479206c697374656400000000000000604482015260640161040f565b5f818152600560208181526040808420865181546001600160a01b03199081166001600160a01b039283161783558885015160018401805483169184169190911790558884015160028401556060808a0151600385018054909316908416179091556080808a0151600485015560a0808b015194909701939093558d8216808852600686528488208e895286529684902088905583518881523395810195909552908b168484015283018990528201879052518993927f5d213268583c22f5ae46afede6b9e99b6c5af5d3c01eef22540ac3d1a6568e8a928290030190a350505050505050565b610ba6610c42565b6004546001600160a01b03808316911603610bf45760405162461bcd60e51b815260206004820152600e60248201526d1352d50e9c995c19585d081cd95d60921b604482015260640161040f565b600480546001600160a01b0319166001600160a01b0383169081179091556040519081527ff6b59ffc88fbb27f33470b919e00b41139ee340eb349521f0cbbc1504ce29c3e906020016104b0565b5f546001600160a01b0316331461037d5760405163118cdaa760e01b815233600482015260240161040f565b5f80546001600160a01b038381166001600160a01b0319831681178455604051919092169283917f8be0079c531659141344cd1fd0a4f28419497f9722a3daafe3b4186f6b6457e09190a35050565b6060610cea7f0000000000000000000000000000000000000000000000000000000000000000600161113a565b905090565b6060610cea7f0000000000000000000000000000000000000000000000000000000000000000600261113a565b604080517f918f4cf9354c0de4fa709dd759129cf520f41e786d670e243a019965e5325416602082015233918101919091525f90610d7290606001604051602081830303815290604052805190602001206111e3565b90505f610db48285858080601f0160208091040260200160405190810160405280939291908181526020018383808284375f9201919091525061120f92505050565b6003549091506001600160a01b03808316911614610e145760405162461bcd60e51b815260206004820152601860248201527f4d4b543a206e6f742077686974654c6973745369676e65720000000000000000604482015260640161040f565b50505050565b5f82815260056020818152604092839020835160c08101855281546001600160a01b03908116808352600184015482169483019490945260028301549582019590955260038201549094166060850152600481015460808501529091015460a0830152610ec15760405162461bcd60e51b81526020600482015260156024820152741352d50e881bdc99195c881b9bdd081b1a5cdd1959605a1b604482015260640161040f565b428160a0015111610f095760405162461bcd60e51b81526020600482015260126024820152711352d50e881bdc99195c88195e1c1a5c995960721b604482015260640161040f565b5f83815260056020818152604080842080546001600160a01b031990811682556001820180548216905560028201869055600382018054909116905560048082018690559301849055908401518451858301518351632142170760e11b81526001600160a01b0392831695810195909552336024860152604485015291519116926342842e0e926064808201939182900301818387803b158015610fab575f80fd5b505af1158015610fbd573d5f803e3d5ffd5b505f925050506001600160a01b03831615610ff557612710601e8360800151610fe69190611982565b610ff09190611999565b610ff7565b5f5b905073eeeeeeeeeeeeeeeeeeeeeeeeeeeeeeeeeeeeeeee6001600160a01b031682606001516001600160a01b03160361107957816080015134146110745760405162461bcd60e51b81526020600482015260146024820152734d4b543a2077726f6e67206574682076616c756560601b604482015260640161040f565b6110be565b34156110be5760405162461bcd60e51b81526020600482015260146024820152734d4b543a2077726f6e67206574682076616c756560601b604482015260640161040f565b6110df8260600151835f01518385608001516110da91906119b8565b611237565b80156110f4576110f482606001518483611237565b604080518581523360208201529081018290527f5745dff4fc7177594453cfe5e3b6cee01687a0a657fc8a8d35fde42437abe7e79060600160405180910390a150505050565b606060ff83146111545761114d836112fe565b9050610500565b818054611160906119cb565b80601f016020809104026020016040519081016040528092919081815260200182805461118c906119cb565b80156111d75780601f106111ae576101008083540402835291602001916111d7565b820191905f5260205f20905b8154815290600101906020018083116111ba57829003601f168201915b50505050509050610500565b5f6105006111ef61133b565b8360405161190160f01b8152600281019290925260228201526042902090565b5f805f8061121d8686611464565b92509250925061122d82826114ad565b5090949350505050565b73eeeeeeeeeeeeeeeeeeeeeeeeeeeeeeeeeeeeeeed196001600160a01b038416016112f2575f826001600160a01b0316826040515f6040518083038185875af1925050503d805f81146112a5576040519150601f19603f3d011682016040523d82523d5f602084013e6112aa565b606091505b5050905080610e145760405162461bcd60e51b81526020600482015260146024820152731352d50e881d1c985b9cd9995c8819985a5b195960621b604482015260640161040f565b61051a83338484611569565b60605f61130a836115c3565b6040805160208082528183019092529192505f91906020820181803683375050509182525060208101929092525090565b5f306001600160a01b037f00000000000000000000000000000000000000000000000000000000000000001614801561139357507f000000000000000000000000000000000000000000000000000000000000000046145b156113bd57507f000000000000000000000000000000000000000000000000000000000000000090565b610cea604080517f8b73c3c69bb8fe3d512ecc4cf759cc79239f7b179b0ffacaa9a75d522b39400f60208201527f0000000000000000000000000000000000000000000000000000000000000000918101919091527f000000000000000000000000000000000000000000000000000000000000000060608201524660808201523060a08201525f9060c00160405160208183030381529060405280519060200120905090565b5f805f835160410361149b576020840151604085015160608601515f1a61148d888285856115ea565b9550955095505050506114a6565b505081515f91506002905b9250925092565b5f8260038111156114c0576114c0611a03565b036114c9575050565b60018260038111156114dd576114dd611a03565b036114fb5760405163f645eedf60e01b815260040160405180910390fd5b600282600381111561150f5761150f611a03565b036115305760405163fce698f760e01b81526004810182905260240161040f565b600382600381111561154457611544611a03565b03611565576040516335e2f38360e21b81526004810182905260240161040f565b5050565b604080516001600160a01b0385811660248301528416604482015260648082018490528251808303909101815260849091019091526020810180516001600160e01b03166323b872dd60e01b179052610e149085906116b2565b5f60ff8216601f81111561050057604051632cd44ac360e21b815260040160405180910390fd5b5f80807f7fffffffffffffffffffffffffffffff5d576e7357a4501ddfe92f46681b20a084111561162357505f915060039050826116a8565b604080515f808252602082018084528a905260ff891692820192909252606081018790526080810186905260019060a0016020604051602081039080840390855afa158015611674573d5f803e3d5ffd5b5050604051601f1901519150506001600160a01b03811661169f57505f9250600191508290506116a8565b92505f91508190505b9450945094915050565b5f8060205f8451602086015f885af1806116d1576040513d5f823e3d81fd5b50505f513d915081156116e85780600114156116f5565b6001600160a01b0384163b155b15610e1457604051635274afe760e01b81526001600160a01b038516600482015260240161040f565b5f81518084528060208401602086015e5f602082860101526020601f19601f83011685010191505092915050565b60ff60f81b881681525f602060e0602084015261176c60e084018a61171e565b838103604085015261177e818a61171e565b606085018990526001600160a01b038816608086015260a0850187905284810360c0860152855180825260208088019350909101905f5b818110156117d1578351835292840192918401916001016117b5565b50909c9b505050505050505050505050565b6001600160a01b0381168114610536575f80fd5b5f60208284031215611807575f80fd5b8135611812816117e3565b9392505050565b5f806040838503121561182a575f80fd5b8235611835816117e3565b946020939093013593505050565b5f805f60408486031215611855575f80fd5b83359250602084013567ffffffffffffffff80821115611873575f80fd5b818601915086601f830112611886575f80fd5b813581811115611894575f80fd5b8760208285010111156118a5575f80fd5b6020830194508093505050509250925092565b5f602082840312156118c8575f80fd5b5035919050565b5f805f805f60a086880312156118e3575f80fd5b85356118ee816117e3565b9450602086013593506040860135611905816117e3565b94979396509394606081013594506080013592915050565b5f6020828403121561192d575f80fd5b5051919050565b5f60208284031215611944575f80fd5b8151611812816117e3565b5f6020828403121561195f575f80fd5b81518015158114611812575f80fd5b634e487b7160e01b5f52601160045260245ffd5b80820281158282048414176105005761050061196e565b5f826119b357634e487b7160e01b5f52601260045260245ffd5b500490565b818103818111156105005761050061196e565b600181811c908216806119df57607f821691505b6020821081036119fd57634e487b7160e01b5f52602260045260245ffd5b50919050565b634e487b7160e01b5f52602160045260245ffdfea2646970667358221220c4f0107ffb7c358dd58c0cd5a3e5cc637eccbfb140b41d542fa376ba2acccd6e64736f6c63430008190033","linkReferences":{}},"methodIdentifiers":{"ETH_FLAG()":"45fe280d","buy(bytes32)":"9c9a1061","buy(bytes32,bytes)":"9b6ec0db","cancel(bytes32)":"c4d252f5","eip712Domain()":"84b0196e","feeBP()":"017f6fae","feeTo()":"017e7e58","list(address,uint256,address,uint256,uint256)":"f3db41fb","listing(address,uint256)":"8de820f6","listingOrders(bytes32)":"e5cb0f52","owner()":"8da5cb5b","renounceOwnership()":"715018a6","setFeeTo(address)":"f46901ed","setWhiteListSigner(address)":"84bdb6e0","transferOwnership(address)":"f2fde38b","whiteListSigner()":"f5615392"},"id":49}